{
  "_format": "hh-sol-artifact-1",
  "contractName": "MusicContract",
  "sourceName": "contracts/nft.sol",
  "abi": [
    {
      "anonymous": false,
      "inputs": [
        {
          "indexed": true,
          "internalType": "uint256",
          "name": "id",
          "type": "uint256"
        },
        {
          "indexed": false,
          "internalType": "string",
          "name": "title",
          "type": "string"
        },
        {
          "indexed": false,
          "internalType": "string",
          "name": "artist",
          "type": "string"
        },
        {
          "indexed": false,
          "internalType": "string",
          "name": "albumImageHash",
          "type": "string"
        }
      ],
      "name": "SongAdded",
      "type": "event"
    },
    {
      "inputs": [
        {
          "internalType": "string",
          "name": "_title",
          "type": "string"
        },
        {
          "internalType": "string",
          "name": "_artist",
          "type": "string"
        },
        {
          "internalType": "string",
          "name": "_albumImageHash",
          "type": "string"
        }
      ],
      "name": "addSong",
      "outputs": [],
      "stateMutability": "nonpayable",
      "type": "function"
    },
    {
      "inputs": [
        {
          "internalType": "uint256",
          "name": "_songId",
          "type": "uint256"
        }
      ],
      "name": "getAlbumImageHash",
      "outputs": [
        {
          "internalType": "string",
          "name": "",
          "type": "string"
        }
      ],
      "stateMutability": "view",
      "type": "function"
    },
    {
      "inputs": [
        {
          "internalType": "uint256",
          "name": "_songId",
          "type": "uint256"
        },
        {
          "internalType": "string",
          "name": "_albumImageHash",
          "type": "string"
        }
      ],
      "name": "setAlbumImageHash",
      "outputs": [],
      "stateMutability": "nonpayable",
      "type": "function"
    },
    {
      "inputs": [],
      "name": "songCount",
      "outputs": [
        {
          "internalType": "uint256",
          "name": "",
          "type": "uint256"
        }
      ],
      "stateMutability": "view",
      "type": "function"
    },
    {
      "inputs": [
        {
          "internalType": "uint256",
          "name": "",
          "type": "uint256"
        }
      ],
      "name": "songs",
      "outputs": [
        {
          "internalType": "string",
          "name": "title",
          "type": "string"
        },
        {
          "internalType": "string",
          "name": "artist",
          "type": "string"
        },
        {
          "internalType": "string",
          "name": "albumImageHash",
          "type": "string"
        }
      ],
      "stateMutability": "view",
      "type": "function"
    }
  ],
  "bytecode": "0x608060405234801561001057600080fd5b50610e05806100206000396000f3fe608060405234801561001057600080fd5b50600436106100575760003560e01c8063304cff301461005c578063931a889b1461008e578063cbf0e354146100ac578063cd2058df146100dc578063fd67dc0c146100f8575b600080fd5b610076600480360381019061007191906105b1565b610114565b6040516100859392919061066e565b60405180910390f35b6100966102d6565b6040516100a391906106c9565b60405180910390f35b6100c660048036038101906100c191906105b1565b6102dc565b6040516100d391906106e4565b60405180910390f35b6100f660048036038101906100f1919061083b565b6103c8565b005b610112600480360381019061010d91906108e2565b610497565b005b60006020528060005260406000206000915090508060000180546101379061096d565b80601f01602080910402602001604051908101604052809291908181526020018280546101639061096d565b80156101b05780601f10610185576101008083540402835291602001916101b0565b820191906000526020600020905b81548152906001019060200180831161019357829003601f168201915b5050505050908060010180546101c59061096d565b80601f01602080910402602001604051908101604052809291908181526020018280546101f19061096d565b801561023e5780601f106102135761010080835404028352916020019161023e565b820191906000526020600020905b81548152906001019060200180831161022157829003601f168201915b5050505050908060020180546102539061096d565b80601f016020809104026020016040519081016040528092919081815260200182805461027f9061096d565b80156102cc5780601f106102a1576101008083540402835291602001916102cc565b820191906000526020600020905b8154815290600101906020018083116102af57829003601f168201915b5050505050905083565b60015481565b6060600154821115610323576040517f08c379a000000000000000000000000000000000000000000000000000000000815260040161031a906109ea565b60405180910390fd5b60008083815260200190815260200160002060020180546103439061096d565b80601f016020809104026020016040519081016040528092919081815260200182805461036f9061096d565b80156103bc5780601f10610391576101008083540402835291602001916103bc565b820191906000526020600020905b81548152906001019060200180831161039f57829003601f168201915b50505050509050919050565b600160008154809291906103db90610a39565b9190505550604051806060016040528084815260200183815260200182815250600080600154815260200190815260200160002060008201518160000190816104249190610c2d565b50602082015181600101908161043a9190610c2d565b5060408201518160020190816104509190610c2d565b509050506001547f3fbf4c5862f73fb1d3ed74853543b32bb985e41d4c26d240fe7762c37c5f731c84848460405161048a9392919061066e565b60405180910390a2505050565b6001548211156104dc576040517f08c379a00000000000000000000000000000000000000000000000000000000081526004016104d3906109ea565b60405180910390fd5b8060008084815260200190815260200160002060020190816104fe9190610c2d565b50817f3fbf4c5862f73fb1d3ed74853543b32bb985e41d4c26d240fe7762c37c5f731c6000808581526020019081526020016000206000016000808681526020019081526020016000206001018460405161055b93929190610d83565b60405180910390a25050565b6000604051905090565b600080fd5b600080fd5b6000819050919050565b61058e8161057b565b811461059957600080fd5b50565b6000813590506105ab81610585565b92915050565b6000602082840312156105c7576105c6610571565b5b60006105d58482850161059c565b91505092915050565b600081519050919050565b600082825260208201905092915050565b60005b838110156106185780820151818401526020810190506105fd565b60008484015250505050565b6000601f19601f8301169050919050565b6000610640826105de565b61064a81856105e9565b935061065a8185602086016105fa565b61066381610624565b840191505092915050565b600060608201905081810360008301526106888186610635565b9050818103602083015261069c8185610635565b905081810360408301526106b08184610635565b9050949350505050565b6106c38161057b565b82525050565b60006020820190506106de60008301846106ba565b92915050565b600060208201905081810360008301526106fe8184610635565b905092915050565b600080fd5b600080fd5b7f4e487b7100000000000000000000000000000000000000000000000000000000600052604160045260246000fd5b61074882610624565b810181811067ffffffffffffffff8211171561076757610766610710565b5b80604052505050565b600061077a610567565b9050610786828261073f565b919050565b600067ffffffffffffffff8211156107a6576107a5610710565b5b6107af82610624565b9050602081019050919050565b82818337600083830152505050565b60006107de6107d98461078b565b610770565b9050828152602081018484840111156107fa576107f961070b565b5b6108058482856107bc565b509392505050565b600082601f83011261082257610821610706565b5b81356108328482602086016107cb565b91505092915050565b60008060006060848603121561085457610853610571565b5b600084013567ffffffffffffffff81111561087257610871610576565b5b61087e8682870161080d565b935050602084013567ffffffffffffffff81111561089f5761089e610576565b5b6108ab8682870161080d565b925050604084013567ffffffffffffffff8111156108cc576108cb610576565b5b6108d88682870161080d565b9150509250925092565b600080604083850312156108f9576108f8610571565b5b60006109078582860161059c565b925050602083013567ffffffffffffffff81111561092857610927610576565b5b6109348582860161080d565b9150509250929050565b7f4e487b7100000000000000000000000000000000000000000000000000000000600052602260045260246000fd5b6000600282049050600182168061098557607f821691505b6020821081036109985761099761093e565b5b50919050565b7f496e76616c696420736f6e672049440000000000000000000000000000000000600082015250565b60006109d4600f836105e9565b91506109df8261099e565b602082019050919050565b60006020820190508181036000830152610a03816109c7565b9050919050565b7f4e487b7100000000000000000000000000000000000000000000000000000000600052601160045260246000fd5b6000610a448261057b565b91507fffffffffffffffffffffffffffffffffffffffffffffffffffffffffffffffff8203610a7657610a75610a0a565b5b600182019050919050565b60008190508160005260206000209050919050565b60006020601f8301049050919050565b600082821b905092915050565b600060088302610ae37fffffffffffffffffffffffffffffffffffffffffffffffffffffffffffffffff82610aa6565b610aed8683610aa6565b95508019841693508086168417925050509392505050565b6000819050919050565b6000610b2a610b25610b208461057b565b610b05565b61057b565b9050919050565b6000819050919050565b610b4483610b0f565b610b58610b5082610b31565b848454610ab3565b825550505050565b600090565b610b6d610b60565b610b78818484610b3b565b505050565b5b81811015610b9c57610b91600082610b65565b600181019050610b7e565b5050565b601f821115610be157610bb281610a81565b610bbb84610a96565b81016020851015610bca578190505b610bde610bd685610a96565b830182610b7d565b50505b505050565b600082821c905092915050565b6000610c0460001984600802610be6565b1980831691505092915050565b6000610c1d8383610bf3565b9150826002028217905092915050565b610c36826105de565b67ffffffffffffffff811115610c4f57610c4e610710565b5b610c59825461096d565b610c64828285610ba0565b600060209050601f831160018114610c975760008415610c85578287015190505b610c8f8582610c11565b865550610cf7565b601f198416610ca586610a81565b60005b82811015610ccd57848901518255600182019150602085019450602081019050610ca8565b86831015610cea5784890151610ce6601f891682610bf3565b8355505b6001600288020188555050505b505050505050565b60008154610d0c8161096d565b610d1681866105e9565b94506001821660008114610d315760018114610d4757610d7a565b60ff198316865281151560200286019350610d7a565b610d5085610a81565b60005b83811015610d7257815481890152600182019150602081019050610d53565b808801955050505b50505092915050565b60006060820190508181036000830152610d9d8186610cff565b90508181036020830152610db18185610cff565b90508181036040830152610dc58184610635565b905094935050505056fea26469706673582212202d36ef6c481619255348a824a6b4c57741bd62f8b06d7eec5519cafc8f9bbff164736f6c63430008130033",
  "linkReferences": {},
  "deployedLinkReferences": {}
}